:0400000007EF00F016
:0A000800518261ED09F02DEF0BF0BD
:10100000003738392F3435362A3132332D23303DED
:051010002B2569000022
:10101600010E486E40504110D8B414EF08F016EF98
:1010260008F036EF08F040C0D9FF41C0DAFFDF50C4
:10103600070B426E050E426023EF08F025EF08F01D
:1010460036EF08F040C0D9FF41C0DAFFDF30E832A2
:10105600E832070B426E070E426434EF08F036EFB3
:1010660008F099EF08F0000E486EBAEF08F040C09D
:10107600D9FF41C0DAFFDF30E832E832070B426EB3
:10108600010E436E422A4AEF08F0D8904336422EAC
:1010960048EF08F04350FF0A446E40C0D9FF41C0F4
:1010A600DAFFDF50070B456E4550020D150EF3248F
:1010B600D96E000EF420DA6EDECF46F0DDCF47F0B3
:1010C60046C0D9FF47C0DAFF4450DF16BAEF08F032
:1010D60040C0D9FF41C0DAFFDF30E832E832070B03
:1010E600426E010E436E422A7BEF08F0D8904336DB
:1010F600422E79EF08F040C0D9FF41C0DAFFDF5039
:10110600070B446E4450020D150EF324D96E000EE3
:10111600F420DA6EDECF45F0DDCF46F045C0D9FFCC
:1011260046C0DAFF4350DF12BAEF08F040C0D9FFDD
:1011360041C0DAFFDFBCA2EF08F0A5EF08F0010E10
:10114600A6EF08F0000E426E436A4350000AD8B478
:10115600AFEF08F036EF08F04250000AD8B43AEF85
:1011660008F0010AD8B46BEF08F036EF08F04850E3
:101176001200010E496E40504110D8B4C5EF08F078
:10118600C7EF08F0E7EF08F040C0D9FF41C0DAFF2B
:10119600DF50070B436E050E4360D4EF08F0D6EF21
:1011A60008F0E7EF08F040C0D9FF41C0DAFFDF30B2
:1011B600E832E832070B436E070E4364E5EF08F0AA
:1011C600E7EF08F04AEF09F0000E496E5FEF09F00D
:1011D60040C0D9FF41C0DAFFDF30E832E832070B02
:1011E600436E010E446E432AFBEF08F0D890443656
:1011F600432EF9EF08F04450FF0A456E40C0D9FF70
:1012060041C0DAFFDF50070B466E4650020D0B0E4B
:10121600F324D96E000EF420DA6EDECF47F0DDCF70
:1012260048F047C0D9FF48C0DAFF4550DF165FEFE8
:1012360009F040C0D9FF41C0DAFFDF30E832E832BA
:10124600070B436E010E446E432A2CEF09F0D8902B
:101256004436432E2AEF09F040C0D9FF41C0DAFFD9
:10126600DF50070B456E4550020D0B0EF324D96E69
:10127600000EF420DA6EDECF46F0DDCF47F046C032
:10128600D9FF47C0DAFF4450DF125FEF09F0425042
:10129600436E446A4450000AD8B454EF09F0E7EFAD
:1012A60008F04350000AD8B4EBEF08F0010AD8B4AE
:1012B6001CEF09F0E7EF08F0495012000600F2A80B
:1012C60067EF09F069EF09F072EF09F0F2A26EEF2D
:1012D60009F070EF09F072EF09F06CEC0BF0F0A674
:1012E60077EF09F079EF09F082EF09F0F0A07EEFD1
:1012F60009F080EF09F082EF09F06AEC0BF0F0A834
:1013060087EF09F089EF09F092EF09F0F0A28EEF6E
:1013160009F090EF09F092EF09F068EC0BF0F2A6F5
:1013260097EF09F099EF09F0A9EF09F0F2A09EEF07
:1013360009F0A0EF09F0A9EF09F081A8A5EF09F0DF
:10134600A7EF09F0A9EF09F066EC0BF0F2A6AEEFF5
:1013560009F0B0EF09F0C0EF09F0F2A0B5EF09F01F
:10136600B7EF09F0C0EF09F081AABCEF09F0BEEFB4
:1013760009F0C0EF09F064EC0BF0F2A6C5EF09F036
:10138600C7EF09F0D7EF09F0F2A0CCEF09F0CEEFE6
:1013960009F0D7EF09F081ACD3EF09F0D5EF09F0EA
:1013A600D7EF09F062EC0BF0F2A6DCEF09F0DEEF06
:1013B60009F0EEEF09F0F2A0E3EF09F0E5EF09F02E
:1013C600EEEF09F081AEEAEF09F0ECEF09F0EEEF8F
:1013D60009F060EC0BF051921100010E4D6E4A506F
:1013E6004B10D8A4F9EF09F0FBEF09F0FFEF09F075
:1013F600000E4D6E3AEF0AF036C04EF04AC0D9FFE5
:101406004BC0DAFFDF500F0B4C6E4E504C18F80BEA
:101416004C184E6E4AC0D9FF4BC0DAFFDF38070BB7
:101426004C6E4C464C464C464E504C18C70B4C180E
:101436004E6E4E9C4AC0D9FF4BC0DAFFDFAE02D0DB
:101446004E8E01D04E9E4E0E406E000E416E0BEC3F
:1014560008F04E0E406E000E416E4AC0D9FF4BC0DA
:10146600DAFF000EDFBE010E426EBCEC08F04D50F6
:101476001200010E4D6E4A504B10D8A445EF0AF0EB
:1014860047EF0AF04BEF0AF0000E4D6E7AEF0AF0C6
:1014960035C04EF04AC0D9FF4BC0DAFFDF500F0B04
:1014A6004C6E4E504C18F80B4C184E6E4AC0D9FF75
:1014B6004BC0DAFFDF38070B4C6E4C464C464C46A9
:1014C6004E504C18C70B4C184E6E4E9C4AC0D9FF56
:1014D6004BC0DAFFDFAE02D04E8E01D04E9E4E0ECE
:1014E600406E000E416E010E426EBCEC08F04D508F
:1014F600120058EC0BF0030E416E40682FC042F00C
:10150600B9EC0AF01F6E2F2A030E416E40682FC0F9
:1015160042F0B9EC0AF01F6E020E506E860E4F6E48
:10152600990EE82EFED74F2EFCD7502EFAD700F094
:10153600030E416E40683F0E426E000E436EF5ECA0
:101546000AF01F6E0A0E3F18D8A4ACEF0AF0AEEFF1
:101556000AF086EF0AF0200E4A6E000E4B6E3CEC47
:101566000AF01F6E86EF0AF007EF00F0000EF2BEDB
:10157600010E436E000E446E4150000AD8B4C6EF09
:101586000AF0C8EF0AF0CAEF0AF0010E446E44C032
:10159600AAFF000E456E40504110D8B4D5EF0AF0B0
:1015A600D7EF0AF0D9EF0AF0010E456E45C0A9FF44
:1015B60042C0A8FFA69EA69CA684F29E550EA76EC4
:1015C600AA0EA76EA682A6B2EBEF0AF0EDEF0AF01E
:1015D600E6EF0AF0A69443B002D0F29E01D0F28E56
:1015E600010E1200010E446E42504310D8A4FEEFC5
:1015F6000AF000EF0BF004EF0BF0000E446E2BEF39
:101606000BF0000E456E4150000AD8B40DEF0BF0FA
:101616000FEF0BF011EF0BF0010E456E45C0AAFF60
:10162600000E466E40504110D8B41CEF0BF01EEF72
:101636000BF020EF0BF0010E466E46C0A9FFA68008
:1016460000F000F042C0D9FF43C0DAFFA8CFDFFFA9
:1016560044501200900EF66E160EF76E000EF86EDF
:1016660000EE01F010EE20F00900F5CFEEFFE55098
:10167600E150FAE100EE21F01F0EEE6AE806FDE108
:101686005190519200017CEF0AF0800F810F820F7A
:10169600830F840F890F8A0F8B0F8C0F8D0F920F7C
:1016A600930F940F950F960F0102200E4A6E000EAF
:1016B6004B6EF0EC09F01F6E1200F2901200F290E1
:1016C6001200F2901200F2901200F0921200F090C6
:0616D6001200F292120066
:020000040020DA
:08000000FFFFFFFFFFFFFFFF00
:020000040030CA
:0E000000FF071F1FFF8185FF0FC00FE00F409D
:00000001FF
